:100000000C94A1000C94C9000C94C9000C94C90074
:100010000C94C9000C94C9000C94C9000C94C9003C
:100020000C94C9000C94C9000C94C9000C94C9002C
:100030000C94C9000C94C9000C94C9000C94C9001C
:100040000C9449030C94C9000C943A060C941406C1
:100050000C94C9000C94C9000C94C9000C94C900FC
:100060000C94C9000C94C9004F4B20000000000004
:10007000240027002A0000000000250028002B0093
:10008000040404040404040402020202020203033E
:100090000303030301020408102040800102040846
:1000A00010200102040810200000000800020100D6
:1000B0000003040700000000000000004D415858F4
:1000C00046414E203120312E330045525220756E6C
:1000D0006B6E6F776E20636F6D6D616E640045525D
:1000E000522076616C7565206F7574206F66207282
:1000F000616E67650045525220657870656374656E
:100100006420372076616C75657300455252206E0D
:100110006F7468696E672073656E7420796574000A
:100120004D41585846414E203120312E3300455222
:1001300052206C696E6520746F6F206C6F6E670063
:10014000E70511241FBECFEFD8E0DEBFCDBF22E010
:10015000A2E2B1E001C01D92AA32B207E1F711E0BC
:10016000A0E0B1E0ECEDF0E102C005900D92A2320A
:10017000B107D9F710E0C1EAD0E004C02197FE0131
:100180000E946608C03AD107C9F70E9493030C94F5
:100190006C080C9400003FB7F8948091870190910F
:1001A0008801A0918901B0918A0126B5A89B05C05C
:1001B0002F3F19F00196A11DB11D3FBFBA2FA92FE6
:1001C000982F8827BC01CD01620F711D811D911DE3
:1001D00042E0660F771F881F991F4A95D1F708954F
:1001E000AF92BF92CF92DF92EF92FF920F931F9345
:1001F000CF93DF936C017B018B01040F151FEB0183
:100200005E01AE18BF08C017D10759F06991D60139
:10021000ED91FC910190F081E02DC6010995892BAB
:1002200079F7C501DF91CF911F910F91FF90EF906A
:10023000DF90CF90BF90AF900895FC01538D448D17
:10024000252F30E0842F90E0821B930B541710F081
:10025000CF96089501970895FC01918D828D98178E
:1002600061F0A28DAE0FBF2FB11D5D968C91928D66
:100270009F5F9F73928F90E008958FEF9FEF089597
:10028000FC01918D828D981731F0828DE80FF11D60
:10029000858D90E008958FEF9FEF0895FC01918D7B
:1002A000228D892F90E0805C9F4F821B91098F7374
:1002B000992708958BE891E00E944E0121E0892B57
:1002C00009F420E0822F0895FC01A48DA80FB92F16
:1002D000B11DA35ABF4F2C91848D90E001968F736E
:1002E0009927848FA689B7892C93A089B1898C918D
:1002F000837080648C93938D848D981306C00288DC
:10030000F389E02D80818F7D80830895EF92FF92A5
:100310000F931F93CF93DF93EC0181E0888F9B8D28
:100320008C8D98131AC0E889F989808185FF15C0E2
:100330009FB7F894EE89FF896083E889F989808105
:100340008370806480839FBF81E090E0DF91CF91D4
:100350001F910F91FF90EF900895F62E0B8D10E0F6
:100360000F5F1F4F0F731127E02E8C8D8E110CC065
:100370000FB607FCFACFE889F989808185FFF5CFB0
:10038000CE010E946401F1CFEB8DEC0FFD2FF11D2A
:10039000E35AFF4FF0829FB7F8940B8FEA89FB89ED
:1003A00080818062CFCF0F931F93CF93DF938C0117
:1003B000D0E0C0E0F801EC0FFD1F6491662341F02E
:1003C0008BE891E00E948601892B11F02196F2CFF3
:1003D000CE01DF91CF911F910F910895CF93DF93BD
:1003E000EC01888D8823B9F0AA89BB89E889F9894D
:1003F0008C9185FD03C0808186FD0DC00FB607FC82
:10040000F7CF8C9185FFF2CF808185FFEDCFCE01B4
:100410000E946401E9CFDF91CF910895E0E8F0E018
:1004200080818F77808329980895CF92DF92EF9211
:10043000FF920F931F9380912E01882309F441C0EE
:100440008091800080688093800020912C01309101
:100450002D01A2E4B3E00E942F0800912801109121
:10046000290120912A0130912B016B017C01C00EE2
:10047000D11EE21EF31EC0922801D0922901E09203
:100480002A01F0922B010E94CB00009124011091CF
:1004900025012091260130912701601B710B820BF1
:1004A000930B6C157D058E059F0568F310922D0149
:1004B00010922C011F910F91FF90EF90DF90CF9041
:1004C00008950E940E02C1CFCF93DF93D82FC62F7D
:1004D00080912C0190912D01892B29F080912E0182
:1004E0008D130E941502D0932E0160912C01709102
:1004F0002D016C0F711D70932D0160932C01DF9104
:10050000CF910895EF92FF920F931F93CF93DF93B4
:100510000E94CB00609324017093250180932601F3
:1005200090932701109228011092290110922A011C
:1005300010922B0110922D0110922C0110922E017D
:10054000CFE2D1E08FE3E82E81E0F82E099161E05F
:1005500081E00E94640218E0802F809561E0817044
:100560000E94640206951150B9F762E080E00E9493
:100570006402EC16FD0651F768E080E00E94640218
:1005800080912C0190912D01892B11F00E94150270
:10059000DF91CF911F910F91FF90EF900C940E027D
:1005A00042E050E060E071E08BE891E00C94F000F4
:1005B000CF93DF930E94D301EC010E94D0028C0FF5
:1005C0009D1FDF91CF910895CF92DF92EF92FF921E
:1005D0001F93CF93DF93CDB7DEB7A1970FB6F894F3
:1005E000DEBF0FBECDBF88E690E00E94D3013FE2A0
:1005F000E32E31E0F32E4FE3C42E41E0D42EF70179
:1006000011917F01103128F460E38BE891E00E94A2
:100610008601812F90E0B0E0A0E019A2FE01B19622
:10062000AC01BD014F7055276627772724E0B695AA
:10063000A795979587952A95D1F74A3044F5405D5F
:1006400042930097A105B10559F7309769F0DF0192
:100650000D900020E9F71197AD014E1B5F0BBF0114
:100660008BE891E00E94F000CE14DF0441F60E9476
:10067000D002A1960FB6F894DEBF0FBECDBFDF91BA
:10068000CF911F91FF90EF90DF90CF900895495C3C
:10069000D7CF1F920F920FB60F9211242F933F9333
:1006A0008F939F93AF93BF93809183019091840127
:1006B000A0918501B09186013091820123E0230F42
:1006C0002D3758F50196A11DB11D2093820180930D
:1006D000830190938401A0938501B093860180915A
:1006E000870190918801A0918901B0918A010196BA
:1006F000A11DB11D8093870190938801A09389016A
:10070000B0938A01BF91AF919F918F913F912F91AB
:100710000F900FBE0F901F90189526E8230F02969A
:10072000A11DB11DD2CFCF93DF93CDB7DEB76097B8
:100730000FB6F894DEBF0FBECDBF789484B582604B
:1007400084BD84B5816084BD85B5826085BD85B575
:10075000816085BD80916E00816080936E001092F3
:10076000810080918100826080938100809181006E
:1007700081608093810080918000816080938000FF
:100780008091B10084608093B1008091B00081605D
:100790008093B00080917A00846080937A00809189
:1007A0007A00826080937A0080917A0081608093E1
:1007B0007A0080917A00806880937A001092C1005C
:1007C000E0919B01F0919C0182E08083E091970190
:1007D000F09198011082E0919901F0919A0180E1E5
:1007E00080831092A301E0919F01F091A00186E027
:1007F0008083E0919D01F0919E01808180618083E2
:10080000E0919D01F0919E01808188608083E0915C
:100810009D01F0919E01808180688083E0919D011F
:10082000F0919E0180818F7D80834DE950E0FA0137
:10083000649189E890E0FC012491222399F030E052
:10084000220F331FF901E459FF4FA591B491F9012B
:10085000EA58FF4F259134912FB7F8943C91632BC0
:100860006C932FBFE1EBF0E02491FA014491FC017D
:1008700094919923E1F0222359F0233009F479C0AF
:1008800008F06CC0213009F47AC0223009F47BC032
:10089000E92FF0E0EE0FFF1FEA58FF4FA591B4914A
:1008A0008FB7F8949C91409549234C938FBF109239
:1008B00080001092810084EA91E0909387008093F9
:1008C00086008091860090918700019663E070E039
:1008D0000E943E08709389006093880082E08093B4
:1008E000800089E1809381008CEB90E00E94D80227
:1008F0008AE0682E712C4424439422242A9493E2A3
:10090000392E8BE891E00E944E01892B09F449C1F0
:100910008BE891E00E942C01E09181018A3019F06E
:100920008D3009F030C1AE2FB0E0AF5BBE4F1C92EE
:10093000509040018EE291E051100DC0EE2309F479
:1009400040C0809141018F3359F58091420181115E
:1009500017C180E291E00E94D80233C02730B1F085
:100960002830D1F0243009F093CF809180008F7D22
:1009700003C0809180008F778093800089CF84B5F9
:100980008F7784BD85CF84B58F7DFBCF8091B000FC
:100990008F778093B0007CCF8091B0008F7DF9CFAE
:1009A0008235A1F4809142018111EAC080913F011A
:1009B000811103C08BE091E0CECF0E9482020E94A1
:1009C000E40210928101109240019BCF833509F01F
:1009D000D7C063E071E082E491E00E948C077C0163
:1009E0008E010F5F1F4FD12CE114F10409F4E6C012
:1009F000F7E0DF1609F4E8C04AE050E0BE01615FAD
:100A00007F4FC7010E946C06EF85F889EE16FF063E
:100A1000E1F02081211119C04B015C0120E8920E08
:100A2000A11CB11C81149104E1E0AE06B10468F48C
:100A3000D394F801619371938F0163E071E090E0CA
:100A400080E00E948C077C01CFCF55245394F0CFD7
:100A5000C980DA80F2E0CF16D10408F08EC08D8014
:100A60009E8022E08216910408F087C0EF80F8840F
:100A700062E0E616F10408F080C009851A850230AC
:100A8000110508F07AC0AD84BE8482E0A816B104D6
:100A900008F073C02B813C812536310508F06DC00C
:100AA000C901B3010E945208892B09F066C04B8529
:100AB0005C85CA014D978734910508F05EC0011529
:100AC000110509F057C0C114D10431F0C701E1E0AC
:100AD0008E27F82FF1705F2E8AE0E8E1F1E0AFE2B7
:100AE000B1E001900D928A95E1F782E0511001C0CA
:100AF00080E0C82A84E0892809F480E0C82A88E0D8
:100B0000EF2809F480E0C82A80E1012B09F480E095
:100B1000C82A80E2AB2809F480E0C82AC0923901D3
:100B200020933A0140933B0120923C0130923D01D9
:100B300042272CED4227C426C0923E0140923F013D
:100B40000E9482020E94E4029091390195FF39CF00
:100B50009F7D9093390180913A0120913B0182273A
:100B600020913C01822720913D0182278927809393
:100B70003E0127CF55245394AFCF8EED90E0EBCEBE
:100B80008AEC90E0E8CEEF3348F491E09E0F90932A
:100B90008101F0E0EF5BFE4F8083B3CE40924001D5
:100BA000B0CE80E090E0892B09F4ABCE0E945A01D0
:100BB000882309F4A6CE0E940000A3CE67E0D612D7
:100BC00003C0552009F444CF85EF90E0C4CEEBE894
:100BD000F1E01382128288EE93E0A0E0B0E084831B
:100BE0009583A683B7838AE091E09183808385EC27
:100BF00090E09587848784EC90E09787868780ECE7
:100C000090E0918B808B81EC90E0938B828B82ECD7
:100C100090E0958B848B86EC90E0978B868B118E81
:100C2000128E138E148E08951F920F920FB60F928C
:100C300011242F933F934F935F936F937F938F93E1
:100C40009F93AF93BF93EF93FF938BE891E00E9444
:100C50006401FF91EF91BF91AF919F918F917F912F
:100C60006F915F914F913F912F910F900FBE0F9019
:100C70001F9018951F920F920FB60F9211242F9369
:100C80008F939F93EF93FF93E0919B01F0919C01D1
:100C90008081E091A101F091A20182FD1BC09081B1
:100CA0008091A4018F5F8F732091A501821741F07D
:100CB000E091A401F0E0E557FE4F958F8093A401E9
:100CC000FF91EF919F918F912F910F900FBE0F90F9
:100CD0001F9018958081F4CFB0E0A0E0E2E7F6E045
:100CE0000C94F9075C016B017A016115710519F02B
:100CF000FB0191838083E114F10451F0C701029755
:100D0000839730F040E030E020E090E072C05E0178
:100D1000E5012196F5011081812F90E00E94830763
:100D2000892BA9F71D3201F52196F501118101E00A
:100D3000E114F10409F4DAC0F0E1EF16F10409F06E
:100D400082C0103359F488818F7D883509F076C0D0
:100D5000198122960260F0E1EF2EF12C812C912C6A
:100D6000A12C88E0B82E8CC01B3221F4E50122961C
:100D7000F501118100E0DCCFEAE0EE16F10409F4A0
:100D8000BBC0F0E1EF16F10409F06DC0E7CF78E0E9
:100D9000E72EF12C812C912CA12C60E1B62E70C095
:100DA0003FE9310F3A3128F439EA332E80C021E08F
:100DB0009AC0302F3170C114D10431F0222309F1CF
:100DC0002197F601D183C08327FF21C060E070E046
:100DD00080E090E8311104C06FEF7FEF8FEF9FE765
:100DE00022E230E03093290220932802462F372F49
:100DF000282F642F732F822FCDB7DEB7E1E10C943B
:100E0000150801FF04C02297F601D183C083332364
:100E100041F090958095709561957F4F8F4F9F4FD2
:100E2000E5CF97FFE3CF82E290E090932902809391
:100E300028026FEF7FEF8FEF9FE7D8CF10E3E11429
:100E4000F10409F4A4CF28E0E216F10409F4A2CFDA
:100E50000CF092CF812C912CA12CE0E4BE2E82E0EC
:100E6000E816F10469F060E070E080E090E8970136
:100E70000F2C000C440B550B0E94CB0749015A0163
:100E800020E060E070E0CB0127010F2C000C660829
:100E90007708FE0150ED352E310E39E0331540F460
:100EA0003FEB310F3A3108F07BCF49EC342E310E55
:100EB0003E141F040CF07DCF27FD15C08616970643
:100EC000A806B90678F0A30192010E94BB07630D42
:100ED000711D811D911D61307105810520E892070A
:100EE00008F465CF2FEF21961081D3CF103309F48A
:100EF0002ACF2AE0E22EF12C9CEC892E982CA82CEB
:100F00009CE0B92EBDCF91110C94B807803219F036
:100F100089508550C8F7089542E251E00E94910738
:100F20000895FA01A191B081009719F41097E1F0AA
:100F3000CD01DC01CD010D90002011F4C00113C0E2
:100F4000FB012191222319F02015D9F7F3CFFB01E2
:100F50002191201519F41E92119606C02223C1F783
:100F60000D900020A1F7D001FA01A193B08308955C
:100F7000992788270895DB018F939F930E94ED079F
:100F8000BF91AF91A29F800D911DA39F900DB29F25
:100F9000900D11240895A1E21A2EAA1BBB1BFD017E
:100FA0000DC0AA1FBB1FEE1FFF1FA217B307E40748
:100FB000F50720F0A21BB30BE40BF50B661F771FA0
:100FC000881F991F1A9469F7609570958095909580
:100FD0009B01AC01BD01CF0108950E942F08A59F80
:100FE000900DB49F900DA49F800D911D1124089524
:100FF0002F923F924F925F926F927F928F929F9229
:10100000AF92BF92CF92DF92EF92FF920F931F9316
:10101000CF93DF93CDB7DEB7CA1BDB0B0FB6F894C7
:10102000DEBF0FBECDBF09942A88398848885F8407
:101030006E847D848C849B84AA84B984C884DF8078
:10104000EE80FD800C811B81AA81B981CE0FD11D5C
:101050000FB6F894DEBF0FBECDBFED010895A29F7D
:10106000B001B39FC001A39F700D811D1124911D7C
:10107000B29F700D811D1124911D0895AA1BBB1BE9
:1010800051E107C0AA1FBB1FA617B70710F0A61B88
:10109000B70B881F991F5A95A9F780959095BC01A9
:1010A000CD01089597FB072E16F4009407D077FD25
:1010B00009D00E943E0807FC05D03EF4909581952A
:1010C0009F4F0895709561957F4F0895EE0FFF1F14
:0C10D0000590F491E02D0994F894FFCFF6
:1010DC000D0A00200900000000008601F0001D012F
:1010EC00EE014E012C0140015AA5807F40BF20DF4C
:0210FC0010CC16
:00000001FF
